{
  "contractName": "Imovel",
  "abi": [
    {
      "constant": false,
      "inputs": [
        {
          "internalType": "string",
          "name": "GPS",
          "type": "string"
        },
        {
          "internalType": "string",
          "name": "morada",
          "type": "string"
        },
        {
          "internalType": "string",
          "name": "localidade",
          "type": "string"
        }
      ],
      "name": "addImovel",
      "outputs": [],
      "payable": false,
      "stateMutability": "nonpayable",
      "type": "function"
    },
    {
      "constant": false,
      "inputs": [
        {
          "internalType": "uint256",
          "name": "imovelIndex",
          "type": "uint256"
        },
        {
          "internalType": "string",
          "name": "newMorada",
          "type": "string"
        }
      ],
      "name": "updateImovel",
      "outputs": [
        {
          "internalType": "bool",
          "name": "",
          "type": "bool"
        }
      ],
      "payable": false,
      "stateMutability": "nonpayable",
      "type": "function"
    },
    {
      "constant": false,
      "inputs": [
        {
          "internalType": "uint256",
          "name": "imovelIndex",
          "type": "uint256"
        }
      ],
      "name": "deleteImovel",
      "outputs": [
        {
          "internalType": "bool",
          "name": "",
          "type": "bool"
        }
      ],
      "payable": false,
      "stateMutability": "nonpayable",
      "type": "function"
    },
    {
      "constant": true,
      "inputs": [],
      "name": "getImoveis",
      "outputs": [
        {
          "components": [
            {
              "internalType": "string",
              "name": "GPS",
              "type": "string"
            },
            {
              "internalType": "string",
              "name": "morada",
              "type": "string"
            },
            {
              "internalType": "string",
              "name": "localidade",
              "type": "string"
            }
          ],
          "internalType": "struct Imovel.imovel[]",
          "name": "",
          "type": "tuple[]"
        }
      ],
      "payable": false,
      "stateMutability": "view",
      "type": "function"
    }
  ],
  "bytecode": "0x608060405234801561001057600080fd5b50610bf6806100206000396000f3fe608060405234801561001057600080fd5b506004361061004c5760003560e01c8063278c9f0a14610051578063777805c5146100815780638f6a12fb146100b1578063ab8960a4146100cf575b600080fd5b61006b6004803603610066919081019061089c565b6100eb565b6040516100789190610a6a565b60405180910390f35b61009b600480360361009691908101906108c5565b610239565b6040516100a89190610a6a565b60405180910390f35b6100b961028f565b6040516100c69190610a48565b60405180910390f35b6100e960048036036100e49190810190610805565b6104d4565b005b600081600080549050111561022f5760008290505b6001600080549050038110156101d1576000600182018154811061012057fe5b90600052602060002090600302016000828154811061013b57fe5b906000526020600020906003020160008201816000019080546001816001161561010002031660029004610170929190610587565b5060018201816001019080546001816001161561010002031660029004610198929190610587565b50600282018160020190805460018160011615610100020316600290046101c0929190610587565b509050508080600101915050610100565b5060008054806101dd57fe5b600190038181906000526020600020906003020160008082016000610202919061060e565b600182016000610212919061060e565b600282016000610222919061060e565b5050905560019050610234565b600090505b919050565b600082600080549050111561028457816000848154811061025657fe5b9060005260206000209060030201600101908051906020019061027a929190610656565b5060019050610289565b600090505b92915050565b60606000805480602002602001604051908101604052809291908181526020016000905b828210156104cb5783829060005260206000209060030201604051806060016040529081600082018054600181600116156101000203166002900480601f01602080910402602001604051908101604052809291908181526020018280546001816001161561010002031660029004801561036f5780601f106103445761010080835404028352916020019161036f565b820191906000526020600020905b81548152906001019060200180831161035257829003601f168201915b50505050508152602001600182018054600181600116156101000203166002900480601f0160208091040260200160405190810160405280929190818152602001828054600181600116156101000203166002900480156104115780601f106103e657610100808354040283529160200191610411565b820191906000526020600020905b8154815290600101906020018083116103f457829003601f168201915b50505050508152602001600282018054600181600116156101000203166002900480601f0160208091040260200160405190810160405280929190818152602001828054600181600116156101000203166002900480156104b35780601f10610488576101008083540402835291602001916104b3565b820191906000526020600020905b81548152906001019060200180831161049657829003601f168201915b505050505081525050815260200190600101906102b3565b50505050905090565b6104dc6106d6565b60405180606001604052808581526020018481526020018381525090506000819080600181540180825580915050906001820390600052602060002090600302016000909192909190915060008201518160000190805190602001906105439291906106f7565b5060208201518160010190805190602001906105609291906106f7565b50604082015181600201908051906020019061057d9291906106f7565b5050505050505050565b828054600181600116156101000203166002900490600052602060002090601f016020900481019282601f106105c057805485556105fd565b828001600101855582156105fd57600052602060002091601f016020900482015b828111156105fc5782548255916001019190600101906105e1565b5b50905061060a9190610777565b5090565b50805460018160011615610100020316600290046000825580601f106106345750610653565b601f0160209004906000526020600020908101906106529190610777565b5b50565b828054600181600116156101000203166002900490600052602060002090601f016020900481019282601f1061069757805160ff19168380011785556106c5565b828001600101855582156106c5579182015b828111156106c45782518255916020019190600101906106a9565b5b5090506106d29190610777565b5090565b60405180606001604052806060815260200160608152602001606081525090565b828054600181600116156101000203166002900490600052602060002090601f016020900481019282601f1061073857805160ff1916838001178555610766565b82800160010185558215610766579182015b8281111561076557825182559160200191906001019061074a565b5b5090506107739190610777565b5090565b61079991905b8082111561079557600081600090555060010161077d565b5090565b90565b600082601f8301126107ad57600080fd5b81356107c06107bb82610ab2565b610a85565b915080825260208301602083018583830111156107dc57600080fd5b6107e7838284610b49565b50505092915050565b6000813590506107ff81610b9c565b92915050565b60008060006060848603121561081a57600080fd5b600084013567ffffffffffffffff81111561083457600080fd5b6108408682870161079c565b935050602084013567ffffffffffffffff81111561085d57600080fd5b6108698682870161079c565b925050604084013567ffffffffffffffff81111561088657600080fd5b6108928682870161079c565b9150509250925092565b6000602082840312156108ae57600080fd5b60006108bc848285016107f0565b91505092915050565b600080604083850312156108d857600080fd5b60006108e6858286016107f0565b925050602083013567ffffffffffffffff81111561090357600080fd5b61090f8582860161079c565b9150509250929050565b600061092583836109ea565b905092915050565b600061093882610aee565b6109428185610b11565b93508360208202850161095485610ade565b8060005b8581101561099057848403895281516109718582610919565b945061097c83610b04565b925060208a01995050600181019050610958565b50829750879550505050505092915050565b6109ab81610b33565b82525050565b60006109bc82610af9565b6109c68185610b22565b93506109d6818560208601610b58565b6109df81610b8b565b840191505092915050565b60006060830160008301518482036000860152610a0782826109b1565b91505060208301518482036020860152610a2182826109b1565b91505060408301518482036040860152610a3b82826109b1565b9150508091505092915050565b60006020820190508181036000830152610a62818461092d565b905092915050565b6000602082019050610a7f60008301846109a2565b92915050565b6000604051905081810181811067ffffffffffffffff82111715610aa857600080fd5b8060405250919050565b600067ffffffffffffffff821115610ac957600080fd5b601f19601f8301169050602081019050919050565b6000819050602082019050919050565b600081519050919050565b600081519050919050565b6000602082019050919050565b600082825260208201905092915050565b600082825260208201905092915050565b60008115159050919050565b6000819050919050565b82818337600083830152505050565b60005b83811015610b76578082015181840152602081019050610b5b565b83811115610b85576000848401525b50505050565b6000601f19601f8301169050919050565b610ba581610b3f565b8114610bb057600080fd5b5056fea365627a7a72315820ca84df812e7405f0e4d2979cfeb99bfe1f8f1e202dfa64ae88e4083518ed8c9f6c6578706572696d656e74616cf564736f6c63430005100040",
  "source": "pragma solidity >=0.4.21 <0.7.0;\r\npragma experimental ABIEncoderV2;\r\n\r\ncontract Imovel {\r\n\r\n    struct imovel{     \r\n        string GPS;\r\n        string morada;\r\n        string localidade;\r\n    }\r\n\r\n    imovel[] imoveis;\r\n\r\n    function addImovel(string memory GPS, string memory morada, string memory localidade) public {\r\n        imovel memory newImovel = imovel(GPS, morada, localidade);\r\n        imoveis.push(newImovel);\r\n    }\r\n\r\n    function updateImovel(uint imovelIndex, string memory newMorada) public returns (bool) {\r\n        if(imoveis.length > imovelIndex){\r\n            imoveis[imovelIndex].morada = newMorada;\r\n            return true;\r\n        }\r\n        return false;\r\n    }\r\n\r\n    function deleteImovel(uint imovelIndex) public returns (bool) {\r\n        if(imoveis.length > imovelIndex){\r\n            for(uint i=imovelIndex; i < imoveis.length-1; i++){\r\n              imoveis[i] = imoveis[i+1];\r\n            }\r\n\r\n            imoveis.pop();\r\n\r\n            return true;\r\n        }\r\n        return false;\r\n    }\r\n\r\n    function getImoveis() public view returns (imovel[] memory) {\r\n        return imoveis;\r\n    }\r\n}",
  "sourcePath": "C:\\Users\\has13\\projeto3\\contracts\\Imovel.sol",
  "compiler": {
    "name": "solc",
    "version": "0.5.16+commit.9c3226ce.Emscripten.clang"
  },
  "schemaVersion": "3.4.3",
  "updatedAt": "2022-01-14T20:43:19.847Z",
  "devdoc": {
    "methods": {}
  },
  "userdoc": {
    "methods": {}
  }
}